:100000000C9434000C9451000C9451000C94510049
:100010000C9451000C9451000C9451000C9451001C
:100020000C9451000C9451000C9451000C94C30496
:100030000C9451000C9451000C9451000C945100FC
:100040000C9451000C9451000C9451000C945100EC
:100050000C9451000C9451000C9451000C945100DC
:100060000C9451000C94510011241FBECFEFD8E026
:10007000DEBFCDBF11E0A0E0B1E0EEE3F0E102C0F1
:1000800005900D92AC3FB107D9F722E0ACEFB1E09B
:1000900001C01D92A933B207E1F70E9402050C943A
:1000A0001D080C940000CF93DF931F92CDB7DEB7ED
:1000B0002A988F71806269830E947A02809302027B
:1000C0006981862F0E947A022A9A0F90DF91CF9140
:1000D00008952A988F710E947A02809302028FEF0E
:1000E0000E947A022A9A0895EF92FF920F931F932B
:1000F000CF93DF938C01C62F83E00E946900F82E16
:100100002A988AE08C0F8F710E947A0280930202F3
:10011000C23070F4E02EC02FD12F12E01F0D8C2FB3
:100120008E19811750F48FEF0E947A028993F7CFCE
:100130008FEF0E947A02F80180832A9ADF91CF9193
:100140001F910F91FF90EF9008958E3708F08DE783
:10015000682F85E00C9453002A9881EE0E947A0261
:10016000809302022A9A08952A988FEF0E947A02B9
:10017000809302022A9A08952A9882EE0E947A02B7
:10018000809302022A9A08951F93CF93DF931F92C0
:10019000CDB7DEB7162F219A229A89830E94740266
:1001A000898190E0AC0124E0440F551F2A95E1F7C6
:1001B000BC0136E0660F771F3A95E1F755E0880FEE
:1001C000991F5A95E1F7862B8360111102C060E0F8
:1001D00001C068E0212F30E021503109220F331F88
:1001E000220F331F842B282B622B80E00E945300A8
:1001F0000E94AC000E94BC00299A0F90DF91CF9121
:100200001F9108952A9880E60E947A028093020244
:100210008FEF0E947A022A9A0895DF92EF92FF925E
:100220000F931F93CF93DF93082FD92E7B01EA0101
:100230000E940201182FE114F10411F0F7018083EC
:10024000809102028E7090E095958795209709F035
:1002500088830797A9F02A9881E60E947A02809302
:100260000202F02EC02FDD2D8C2F8F19811728F45C
:100270008FEF0E947A028993F7CF2A9A81E001C01A
:1002800080E0DF91CF911F910F91FF90EF90DF9071
:100290000895663010F40C9474000895CF93813063
:1002A00021F0823021F4C0E203C0C8E001C0C0E008
:1002B00086E00E946900877D682F6C2B86E0CF91D5
:1002C0000C945300863018F48F5E0C9453000895FC
:1002D000CF93C82F81E00E94690061E070E001C007
:1002E000660FCA95EAF7682B81E0CF910C94530012
:1002F000CF93C82F81E00E94690061E070E001C0E7
:10030000660FCA95EAF76095682381E0CF910C9457
:1003100053006EEF680F21F0643018F063E001C005
:1003200061E083E00C945300EF92FF920F931F93D0
:10033000CF93DF93C82F8B0183E00E946900F82ED2
:100340002A988AE08C0F8F7180620E947A028093D3
:100350000202C23068F4E02EC02FD12F12E01F0D30
:100360008C2F8E19811740F489910E947A02F8CF60
:10037000F80180810E947A022A9ADF91CF911F9121
:100380000F91FF90EF900895CF92DF92FF920F931D
:100390001F93CF93DF931F92CDB7DEB7182F83E063
:1003A00099830E94690002E0080F2A9880E30E9466
:1003B0007A0280930202F12EC12E9981D92E8C2DC2
:1003C0008F19801730F4F60181916F010E947A0233
:1003D000F6CF2A9A0F90DF91CF911F910F91FF9046
:1003E000DF90CF900895EF92FF920F931F93CF93DA
:1003F000DF93EC01062FE72EF42E122F90910202CC
:10040000892F817090FD3AC090910102911137C0FF
:10041000299880E00E946900682F6E7F80E00E942A
:10042000530060E08CEF91E00E947400BE0180E018
:100430000E949401CE010E94C4012A98112311F058
:1004400080EA01C080EB0E947A02C02FDE2DCE012F
:100450008F0D911D7C01CE15DF0521F089910E9441
:100460007A02F9CF2A9A299A98E29A95F1F729986F
:1004700081E0112321F08093010201C080E0DF912F
:10048000CF911F910F91FF90EF9008950E94B400BB
:100490008091020285FF10C0109201026CEF71E0A2
:1004A00080E00E94940180E00E946900682F6160F2
:1004B00080E00E945300299A8091020284FF10C0BC
:1004C000109201026CEF71E080E00E94940180E0E4
:1004D0000E946900682F616080E00E945300299AA1
:1004E00060E787E00C94530084B1886284B980E5AA
:1004F0008CBD08958EBD0DB407FEFDCF8EB5089559
:100500009091C00095FFFCCF8093C60081E090E001
:1005100008958091C00087FFFCCF8091C60090E0D5
:1005200008951092C50081E08093C400E0ECF0E0F3
:1005300080818D7F808386E08093C20088E18093F4
:10054000C100E3E3F2E08EE091E09383828380E0F8
:1005500091E0918380830895EF92FF920F931F9310
:10056000CF93DF9300D000D01F92CDB7DEB795E0D8
:10057000ECE1F1E0DE01119601900D929A95E1F720
:100580008D831F928F9381E291E09F938F930E94BE
:1005900022050DE112E00F900F900F900F9080E375
:1005A000E82E81E0F82EF80181918F011F928F9340
:1005B000FF92EF920E9422050F900F900F900F90E4
:1005C000F2E00D321F0779F78AE090E00E943805CB
:1005D00021E040E16DE172E0CE0101960E94F3015D
:1005E0000F900F900F900F900F90DF91CF911F9170
:1005F0000F91FF90EF900895CF93DF9300D000D03C
:100600001F92CDB7DEB785E0ECE1F1E0DE01119697
:1006100001900D928A95E1F78FEF8D8320E040E104
:100620006DE172E0CE0101960E94F3010F900F90F0
:100630000F900F900F90DF91CF910895EDE1F2E0D0
:10064000108280910C0281831F928F9387E391E047
:100650009F938F930E94220581E090E090932E0259
:1006600080932D020F900F900F900F900C94FC022E
:100670001F93CF93DF9300D000D01F92CDB7DEB78A
:10068000182F61E081E00E94C40060E180E00E94D8
:10069000620160E181E00E94620160E082E00E940C
:1006A000620160E083E00E94620160E084E00E94F9
:1006B000620160E085E00E94620185E00E9489019C
:1006C00080E00E94780181E00E94680188E70E9432
:1006D000A50082E00E944E0185E0ECE1F1E0DE0140
:1006E000119601900D928A95E1F78FEF8D83BE01EF
:1006F0006F5F7F4F80E00E949401112329F081E019
:100700008D8380930C0201C01D82BE016F5F7F4FFD
:1007100081E00E949401112339F082E090E09093EF
:100720002E0280932D0202C00E941E030F900F9094
:100730000F900F900F90DF91CF911F9108953F92EE
:100740004F925F926F927F928F929F92AF92BF92E1
:10075000CF92DF92EF92FF920F931F93CF93DF938D
:10076000CDB7DEB727970FB6F894DEBF0FBECDBF6B
:100770002B013C0183E00E9469001F928F9388E463
:1007800091E09F938F930E94220560E0CE01019635
:100790000E9449018D811F928F938C811F928F93AC
:1007A0008B811F928F938A811F928F9389811F92D1
:1007B0008F9387E591E09F938F930E94220561E0DC
:1007C000CE0101960E9449018D811F928F938C81E9
:1007D0001F928F938B811F928F938A811F928F9389
:1007E00089811F928F938CE791E09F938F930E9452
:1007F000220540920702509208026092090270920C
:100800000A020E9446020FB6F894DEBF0FBECDBFAB
:1008100001EA11E090E3E92E91E0F92E2AECC22ED4
:1008200021E0D22E39EAA32E31E0B32E43E0342E5C
:10083000AE014A5F5F4FBE01695F7F4F8DE092E07E
:100840000E940D01882309F461C01F930F930E9439
:1008500022058DE0882E82E0982E0F900F90F401F3
:1008600081914F011F928F93FF92EF920E94220578
:100870000F900F900F900F90FDE18F16F2E09F0602
:1008800071F78AE090E00E9438059E8180910D0208
:10089000911123C08111CCCF80910E021F928F93B2
:1008A00080910C021F928F93BF92AF920E942205FB
:1008B00030921D0280910C0280931E0280910B02E7
:1008C00080931F0280910E020E94AC020F900F9045
:1008D0000F900F900F900F90ABCF833009F0A8CFFF
:1008E00080910F021F928F9380910E021F928F931F
:1008F00080910C021F928F93DF92CF920E9422056B
:100900000FB6F894DEBF0FBECDBF92CF80912D02FF
:1009100090912E020197F9F48091030290910402C4
:10092000A0910502B0910602A3019201281B390B88
:100930004A0B5B0BDA01C90189389341A105B10566
:1009400050F00E941E0340920302509204026092F3
:1009500005027092060227960FB6F894DEBF0FBE0E
:10096000CDBFDF91CF911F910F91FF90EF90DF905E
:10097000CF90BF90AF909F908F907F906F905F903F
:100980004F903F9008951F920F920FB60F9211242F
:100990008F939F93AF93BF9380912F0290913002DA
:1009A000A0913102B09132020196A11DB11D809338
:1009B0002F0290933002A0933102B0933202BF9184
:1009C000AF919F918F910F900FBE0F901F90189530
:1009D000109280002AE02093810010928200909370
:1009E0008900809388001092850010928400EFE6C1
:1009F000F0E08081826080837894089588EE93E0AF
:100A00000C94E80480E880936100109261000E94D9
:100A100091020E94FE0481E00E94380361E070E0D0
:100A200080E090E00E949F0389EF91E00E943F05E3
:100A30002FEF84E39CE0215080409040E1F700C01C
:100A40000000ECCFA0E0B0E0E8E2F5E00C94F6079F
:100A5000AE014B5F5F4FFA0161917191AF018091DF
:100A60003502909136020E946F05E2E00C94120864
:100A700060913502709136020E94580708950F93D5
:100A80001F93CF93DF93E0913502F09136022381DB
:100A900021FF1BC08C01D0E0C0E0F80181918F01E3
:100AA0006091350270913602DB011896ED91FC9150
:100AB0001997882331F00995892B79F3DFEFCFEF70
:100AC000ECCF8AE00995892B19F08FEF9FEF02C0D8
:100AD0008D2F9C2FDF91CF911F910F910895ACE046
:100AE000B0E0E5E7F5E00C94E6076C017B018A01D4
:100AF000FC0117821682838181FFBEC1CE0101965F
:100B00004C01F6019381F70193FD859193FF81914B
:100B10007F01882309F4ACC1853239F493FD8591B6
:100B200093FF81917F01853229F4B60190E00E9404
:100B30005807E7CF512C312C20E02032A0F48B3223
:100B400069F030F4803259F0833269F420612CC0AE
:100B50008D3239F0803339F4216026C02260246060
:100B600023C0286021C027FD27C030ED380F3A3060
:100B700078F426FF06C0FAE05F9E300D1124532E54
:100B800013C08AE0389E300D1124332E20620CC031
:100B90008E3221F426FD6CC1206406C08C3611F41F
:100BA000206802C0883641F4F70193FD859193FFD8
:100BB00081917F018111C1CF982F9F7D95549330F2
:100BC00028F40C5F1F4F9FE399830DC0833631F0EB
:100BD000833771F0833509F05BC022C0F801808152
:100BE00089830E5F1F4F44244394512C540115C038
:100BF0003801F2E06F0E711CF801A080B18026FF71
:100C000003C0652D70E002C06FEF7FEFC5012C8738
:100C10000E944D072C0183012C852F77222E17C0AF
:100C20003801F2E06F0E711CF801A080B18026FF40
:100C300003C0652D70E002C06FEF7FEFC5012C8708
:100C40000E9442072C012C852068222E830123FC60
:100C50001BC0832D90E048165906B0F4B60180E21F
:100C600090E00E9458073A94F4CFF50127FC859153
:100C700027FE81915F01B60190E00E945807311074
:100C80003A94F1E04F1A51084114510471F7E6C04B
:100C9000843611F0893639F5F80127FF07C06081E5
:100CA0007181828193810C5F1F4F08C060817181C7
:100CB000072E000C880B990B0E5F1F4F2F76722E9C
:100CC00097FF09C090958095709561957F4F8F4FE4
:100CD0009F4F2068722E2AE030E0A4010E9488070E
:100CE000A82EA81844C0853729F42F7EB22E2AE0FA
:100CF00030E025C0F22FF97FBF2E8F36C1F018F4F7
:100D0000883579F0B5C0803719F0883721F0B0C048
:100D10002F2F2061B22EB4FE0DC08B2D8460B82E13
:100D200009C024FF0AC09F2F9660B92E06C028E094
:100D300030E005C020E130E002C020E132E0F801FF
:100D4000B7FE07C060817181828193810C5F1F4F64
:100D500006C06081718180E090E00E5F1F4FA401AA
:100D60000E948807A82EA818FB2DFF777F2E76FEFD
:100D70000BC0372D3E7FA51450F474FE0AC072FCE0
:100D800008C0372D3E7E05C0BA2C372D03C0BA2CC3
:100D900001C0B52C34FF0DC0FE01EA0DF11D8081AC
:100DA000803311F4397E09C032FF06C0B394B39486
:100DB00004C0832F867809F0B39433FD13C030FF4D
:100DC00006C0B31498F43A0C532C5B1810C0B3143B
:100DD00070F4B60180E290E03C870E945807B3941B
:100DE0003C85F5CFB31418F43B1802C05A2C312CB3
:100DF00034FF12C0B60180E390E03C870E945807A0
:100E00003C8532FF17C031FD03C088E790E002C087
:100E100088E590E0B6010CC0832F867859F031FF49
:100E200002C08BE201C080E237FD8DE2B60190E0A6
:100E30000E945807A51438F4B60180E390E00E94A0
:100E400058075A94F7CFAA94F401EA0DF11D808156
:100E5000B60190E00E945807A110F5CF332009F4A5
:100E600050CEB60180E290E00E9458073A94F6CF47
:100E7000F6018681978102C08FEF9FEF2C96E2E109
:100E80000C940208FC010590615070400110D8F7E5
:100E9000809590958E0F9F1F0895FC0161507040C2
:100EA00001900110D8F7809590958E0F9F1F08959F
:100EB0000F931F93CF93DF93182F092FEB018B8193
:100EC00081FD03C08FEF9FEF1EC082FF0FC02E81F8
:100ED0003F818C819D812817390774F4E881F9815D
:100EE000CF01019699838883108306C0E885F98530
:100EF000812F0995892B31F78E819F8101969F83E0
:100F00008E83812F902FDF91CF911F910F910895A4
:100F1000FA01AA27283051F1203181F1E8946F932A
:100F20006E7F6E5F7F4F8F4F9F4FAF4FB1E03ED0D0
:100F3000B4E03CD0670F781F891F9A1FA11D680F6E
:100F4000791F8A1F911DA11D6A0F711D811D911DA1
:100F5000A11D20D009F468943F912AE0269F112416
:100F60003019305D3193DEF6CF010895462F47707A
:100F7000405D4193B3E00FD0C9F7F6CF462F4F70D5
:100F8000405D4A3318F0495D31FD4052419302D033
:100F9000A9F7EACFB4E0A6959795879577956795D9
:100FA000BA95C9F700976105710508959B01AC01D9
:100FB0000A2E06945795479537952795BA95C9F700
:100FC000620F731F841F951FA01D08952F923F92DB
:100FD0004F925F926F927F928F929F92AF92BF9249
:100FE000CF92DF92EF92FF920F931F93CF93DF93F5
:100FF000CDB7DEB7CA1BDB0B0FB6F894DEBF0FBE52
:10100000CDBF09942A88398848885F846E847D849E
:101010008C849B84AA84B984C884DF80EE80FD80A0
:101020000C811B81AA81B981CE0FD11D0FB6F89416
:0E103000DEBF0FBECDBFED010895F894FFCFD7
:10103E000000000100000000000089020000000016
:10104E000002000000008002000000008E89BED663
:10105E000053454E4428256429202D3E203078002B
:10106E0025303268685800436F6E6E656374696E22
:10107E006720282564290A00524547202D3E202549
:10108E0030326868580A0030202D3E2025303268F4
:10109E0068582530326868582530326868582530CF
:1010AE00326868582530326868580A0031202D3E63
:1010BE00202530326868582530326868582530321D
:1010CE006868582530326868582530326868580A82
:1010DE000044202D3E203078004E6F64652025643C
:1010EE0020676F74204252445F434F4E4E45435427
:1010FE002066726F6D2025640A004E6F6465202590
:10110E006420676F74205041434B45545F4F4646F1
:10111E0045522066726F6D202564207769746820B1
:0C112E00686F70632025640A002E00002A
:00000001FF
